:040000006F208022CB
:100004000000000000000000AA050000AC0500008C
:100014000000000026220000000000000000000094
:10002400262200002622000000000000000000003C
:10003400262200000000000026220000000000002C
:10004400262200002622000026220000262200008C
:10005400262200002622000026220000262200007C
:10006400262200002622000026220000262200006C
:10007400262200002622000026220000262200005C
:10008400262200002622000026220000262200004C
:10009400262200002622000026220000262200003C
:1000A400262200002622000026220000262200002C
:1000B400262200002622000026220000262200001C
:1000C400262200002622000026220000262200000C
:1000D4002622000026220000DE1C0000262200004A
:1000E40026220000262200002622000026220000EC
:1000F40026220000262200002622000026220000DC
:100104000000000026220000262200002622000013
:10011400E61D0000262200006210000026220000D6
:1001240026220000262200002622000026220000AB
:10013400262200002622000026220000262200009B
:10014400262200002622000026220000262200008B
:10015400262200002622000026220000262200007B
:10016400262200002622000026220000262200006B
:10017400262200002622000026220000262200005B
:10018400262200002622000026220000262200004B
:10019400262200002622000026220000262200003B
:1001A400000000000000000000000000000000004B
:0C01B4000000000000000000000000003F
:1001C000397101436EC619A0397141536AC866CAB4
:1001D00062CC5ECE19A0397101535AD056D252D496
:1001E0004ED64AD826DA22DC06DE3301614082820E
:1001F00041114AC026C222C406C68282B24D4101C4
:10020000024D924C224CB24B4101024B924A224A7F
:10021000B2494101024992442244B24041018280E4
:100220003D432A876373C3029377F700BDEFADE5C3
:10023000937606FF3D8ABA960CC34CC30CC74CC7D5
:100240004107E36BD7FE11E28280B306C3408A0602
:100250009702000096966780A6002307B700A306C2
:10026000B7002306B700A305B7002305B700A30412
:10027000B7002304B700A303B7002303B700A3020A
:10028000B7002302B700A301B7002301B700A30002
:10029000B7002300B700828093F5F50F9396850091
:1002A000D58D93960501D58D61B79396270097025A
:1002B000000096968682E78086FA9680C1171D8F89
:1002C0003E96E374C3F8A5B7EFF2FFF03764004041
:1002D0002A89AE89130504808545EF20205885457D
:1002E00013050480EF204054B7050300850513056E
:1002F0000480492C41E59305C003130504800146A1
:10030000EF202058B70407009385240813050480C4
:10031000952C2DE513050480CA85EF20C0551305E3
:10032000048093854408B92C2A8429E9B704001075
:100330003769004093840408130A0980A685528512
:10034000EF20A05665DD13050980CE853709001022
:10035000B7640040EF2020521309090893840480F9
:10036000CA852685EF20605465DD376500408545E8
:1003700013050580EF20E04C228541BD0544F5B70B
:10038000EFF21FE73764004085452A891305048092
:10039000EF20C04C854513050480EF20E048B704EA
:1003A00003009385140013050480E92A01C58544E0
:1003B00026858DB59305C003130504800146EF2003
:1003C000404CB705070093852508130504805D2A76
:1003D00079FDCA8513050480EF20E04913050480E8
:1003E000854537640040EF202044850413090480CC
:1003F000A6854A85EF20004A65DD13050480054681
:100400009305D00337040300B7640040EF20604732
:10041000090413890480A2854A85EF20A04765DD81
:10042000138504808145B704001037640040EF2035
:10043000E0429384040413090480A6854A85EF20D2
:10044000C04665DD13050480EF202043AA8485455E
:1004500013050480EF20E03EA1BFEFF27FD93715EE
:1004600003008945130505D4592891450145A93D47
:1004700013052003EF2030398D450145B135014585
:10048000013775153335A00071B3EFF2DFD40111D8
:100490002A8924082944C149228532C62EC405046C
:1004A000C53588A01374F40F8504A2453246E315C0
:1004B00034FF03478101814793168701E18663C7B3
:1004C0000600834791010D8B8A07D98F2310F9000D
:1004D0008347B1010347A101A207D98F0347C10197
:1004E0001EA281479376070481EA8347D1013D8BA1
:1004F000920793F7073FD98F9EA1056139B3EFF2B9
:100500009FCD0111AA8A2E8A21458545EF20805B67
:10051000854537054000EF20C05CB7140140130447
:100520000040F1490D494C00138504C060824EC65D
:100530004AC4EF20C0038567938707804C0013856A
:1005400004C07C824EC64AC4EF206002B707004058
:10055000E085376400403ECA0C08916713050480AB
:10056000FC8656C8231C4101EF20A01A1305048005
:100570008545EF20E029854513050480EF20002EF6
:10058000056161B1EFF2DFC64164AA842E897D1452
:10059000CA852685EF20003019C10145A5B97D1413
:1005A0004204418075F40545D5BF01A001A0135751
:1005B0008500B707026098A31375F50F88A38280A2
:1005C000B70702609C23411193F7F70FDC878887F8
:1005D00041018280EFF23FC019711306C0038145CB
:1005E000C800130AC10002C002C202C41539714614
:1005F00081455285353193098102714681454E8589
:100600000531854513050010EF20E04985451305A8
:100610008006EF20204B37190140F1770D44E1446B
:10062000938737038A85130509407C8026C422C23C
:10063000EF10F07337250140930700788A85130582
:1006400005807C8026C422C2EF10707285678A857F
:10065000130509407C8026C422C2EF1050718A85A0
:1006600093070008130509407C8026C422C2EF10BE
:10067000107085473EC6BD473ECA8567BED4C800D8
:100680009167BED822D8D2DCCEDE02C802CC02CE20
:1006900002D002D202D402D602DA02DC02DE82C02A
:1006A00082C282C482C682C882CA82CE82CC82D0F2
:1006B00082D282D682DAEF10D05E85450145EF10F6
:1006C0003069096199B6EFF2BFB205654111854500
:1006D00013058580EF20003F9167371401407C822D
:1006E000C1474C003EC6130504C08D473EC4EF1001
:1006F000106813054006EF2010110546916513059B
:1007000004C0EF101073410131B6239CA180B707DC
:1007100000202394B71E8280B70702601307A0024F
:10072000A38FE7FE1357850098A31375F50F88A3D1
:100730001357860098A31376F60F90A31307B00201
:10074000A38FE7FE13D7850098A393F5F50F8CA32D
:1007500013D7860098A393F6F60F94A31307C0024D
:10076000A38FE7FE8280EFF2BFA89306F00E9354AA
:1007700085001374F50F1306F00E81450145693F9E
:100780001307000FB70602609307000FFD1784A23E
:10079000C20780A2C183FDFB7D17420741836DF72D
:1007A00095BCEFF2FFA40537353537040260914759
:1007B000A30FF4FE31352935213593140501C1808D
:1007C000A204C204F53BC180458D9315050137A5F0
:1007D0000000C181130505AEEF30A00C1305200306
:1007E000EF20700293076003A30FF4FE23000400C0
:1007F0001306A003A30FC4FE95471CA0930720FB7C
:10080000A30FF4FEB14614A014A023000400930724
:1008100030031CA01CA0130770FBA30FE4FE2300F1
:1008200004001307B0FBA30FE4FE1303F00323003F
:100830006400130700FCA30FE4FE1307C00218A016
:10084000130720FCA30FE4FE054718A0130730FC94
:10085000A30FE4FEB54823001401130740FCA30FC7
:10086000E4FE1307000218A0130760FCA30FE4FEC8
:100870000D4718A0930500FDA30FB4FE930540FAA1
:100880000CA0930510FA0CA08155A30FB4FE41589B
:100890002300040118A0A5450CA018A0414518A0EC
:1008A0009305D00208A00CA01307300418A0230061
:1008B00064001CA023001401394718A0930490027F
:1008C00004A093082003230014018558A30F14FFEC
:1008D0002300040114A008A018A018A0294718A0FC
:1008E0000CA01CA0930750041CA010A0D1471CA072
:1008F000E5471CA0930710031CA0930770031CA0DE
:1009000093071002A30FF4FEC547A30FF4FE1305CF
:100910004006EF20406F0145B9353715014091651C
:10092000130505C0EF10B050A30F94FE6FF09F8E1B
:1009300093D816001308000FB308184163E2A816F5
:100940003308D840636EB814EFF21F88130406FE14
:1009500041461374F40F6390C6069386F5001306A0
:100960007500C2064206C18241821D6A75331204B7
:100970008149130A0ABEB70B0020C14AB3073401EC
:10098000D29703C90700A14493178901E18763D176
:10099000070203D58B1EFD14060993F4F40F0139E9
:1009A0001379F90FF5F08509E39A59FD6FF05F852A
:1009B00003D58181CDB76146639BC60693867501D9
:1009C0001306B500C2064206C1824182B1339307C5
:1009D00000183304F4021D6A8144130B0003130A48
:1009E0000A1C370C00200D8093F7F40FE38064FDA0
:1009F000330794005297858B83490700914A91E30E
:100A0000A14A014993978901E18763DF07000355F4
:100A10008C1E050986091379F90F513E93F9F90FD8
:100A2000E3922AFF8504C9B703D58181DDB7130698
:100A300000026390C6069386F5011306F500C20610
:100A40004206C1824182216AC1391A048149130ACE
:100A50000A36B70B0020930A0004B3878900D297A7
:100A600003C90700A14493178901E18763D00702F6
:100A700003D58B1EFD14060993F4F40F0D3E137974
:100A8000F90FF5F08509E39A59FD0DB703D581817A
:100A9000D5B737A500001305C5AEEF20906039B774
:100AA0008280557126DB4AD94ED7AA84B2892E8915
:100AB000130600088145080822DDBAC1BEC306DF5F
:100AC00052D556D35AD15ECF3684C2C5C6C7EFF0D1
:100AD0002FF513F779FFC147630DF7009307000265
:100AE0006389F90037A50000CE851305C5B3EF2053
:100AF000505B9401228693054006080836C6EF40F5
:100B0000507113D719009307000F131B0701C16A17
:100B1000B38BE740135B0B010008338A3741938A9C
:100B20000A801C2081EFFA506A54DA544A59BA59A3
:100B30002A5A9A5A0A5BFA4B6961828063F79B00D2
:100B40004E99420913590901814463762A01568559
:100B500019390149814410202685DA94CE86CA8548
:100B6000C204F933C18005046DBFEFF26FE8BA87A4
:100B7000B7A600003287938686B33E861D376FF096
:100B80006FE9EFF2EFE3130101BC0945EF101055D7
:100B9000EF200045096513050558EF20204AD929A3
:100BA00083A5818037A50000130585B7EF20704F1E
:100BB000EF00500EFD36EF00902BEF00703237251E
:100BC000004005469305000C13050580EF20C03A50
:100BD000C1649385F4FF01450D3EB7A600009386DE
:100BE00086B8130600028145130520035D3D9385F9
:100BF000F4FF0145193EB7AD000093860DB941469B
:100C0000930500030145713D19642D469305443D4C
:100C10004818EF407034AD454818EF005073AA856E
:100C200037A50000130585B9EF20B04793840480F1
:100C300037A90000B7A90000EFF03F826311053C1F
:100C4000EF10C02BFD450145C934B7A600009386BF
:100C500086BB4146930500031305400B9935EF0011
:100C600090410565130585BBEF20E039EF00703D2D
:100C7000AA8405C91304443D5E241306E03F814560
:100C8000130521042310F104EFF08FD9A685880005
:100C9000EF00D03337A500008C001305C5BBEF2053
:100CA0005040EF00F006EF00501109659305F5572D
:100CB0001305F570EF108040EF102045B7A7000036
:100CC00003A847B683A707B6B7A9000003AA09B7C8
:100CD0003EC0B7A7000083AA49B742C203A8C7B65F
:100CE00083A787B652CA568D528BD68B3EC442C656
:100CF000B70400201384A41E91211C209384A41EF9
:100D000063800734130621038C000818EFF0EFF717
:100D1000416C9305FCFF0145EFF03F9F93860DB9B1
:100D20004146930500030145AD3BA165FD15014515
:100D3000EFF0BF9D03570103B7A600009386C6BC22
:100D40004146930500047945A93B03570104B7A622
:100D50000000938686BD4146930500057945913391
:100D600003572103B7A60000938646BE414693056C
:100D7000000679453D330810EF10201A41460C104B
:100D8000138501D6EF40501D03A701D683A741D696
:100D9000024692463A85BE853ACC3ECEEF30700B85
:100DA00037A900006350A0086247F2472246B246C6
:100DB0003A85BE85EF30D0146356050693050CFEC8
:100DC0000145EFF09F9483A541D603A501D6EF40DE
:100DD000C05D61472A8689469305600929457133BC
:100DE000930609BF61469305600913053002553922
:100DF00003A609B783A649B703A501D683A541D6A3
:100E0000EF30701BEF40605A1316050141829307C3
:100E100040063376F602614789469305600913055B
:100E2000D002A133138401D6032C8400832CC40088
:100E3000014681466285E685EF30B0016353A00626
:100E40005A86DE866285E685EF30900B635B05048B
:100E5000E6856285EF40605561472A86894693059D
:100E6000800C29451933930609BF61469305800C10
:100E7000130530023D3108444C445A86DE86EF307B
:100E80009013EF40805213160501418293074006EC
:100E90003376F602614789469305800C1305D0022C
:100EA000E931EF00503EB7A600002A87938646BF7F
:100EB0004146930500077945ED36416C93050CFEDC
:100EC0000145EFF09F8483A541D803A501D8EF40E9
:100ED000C04D61472A868946930540061305A00543
:100EE0006931930609BF6146930540061305300733
:100EF0004D3E03A501D883A541D85286D686EF3052
:100F0000900BEF40804A13160501130440064182FE
:100F100033768602614789469305400613057008BB
:100F2000A93193050CFE0145EFF02FFE83A541DAB0
:100F300003A501DAEF40604761472A868946930599
:100F400020081305A0051531930609BF61469305D6
:100F5000200813053007B13603A501DA83A541DA6D
:100F60005246EA86EF303005EF4020441316050163
:100F7000418233768602614789469305200813052E
:100F80007008E53693050CFE0145EFF00FF883A5D8
:100F900041DC03A501DCEF40404161472A868946D8
:100FA0009305000A1305A005C936930609BF6146DB
:100FB0009305000A13053007ED3403A609B783A68D
:100FC00049B703A501DC83A541DCEF30C07EEF40CB
:100FD000C03D13160501418233768602614789467A
:100FE0009305000A130570084936EF00304AEF00F8
:100FF0005005EF0050299C20FD179CA0D5B9130582
:101000004006EF204000A6850145EFF00FF0930663
:1010100089BA4146930500031305400B5934130563
:10102000800CEF10507E938609BB41469305000368
:101030001305400BBD341305800CEF10D07CEDBEC2
:1010400013054006EF10307C37050020A14513053D
:101050000500512913054006EF10F07A8D471CA0BA
:1010600041B9854537150040EF109062EF00500BF5
:1010700073002030EFF2CF9741118545130500062C
:1010800002C202C402C6EF10F023E1773725014007
:101090000D44F107C1444C00130505807C8226C62F
:1010A00022C4EF10C04C8D6737150140938787A08D
:1010B0004C00130505407C8226C622C4EF10204B4D
:1010C00041016FF02F95EFF2AF920C21294437398F
:1010D0000140B3858502AA84130509C0EF10705A38
:1010E0008C30130509C0B3858502EF10D059AC20B0
:1010F000130509C037590140B3858502EF10F05838
:10110000AC3037550140B3858502EF109057CC20A5
:10111000130509C0B3858502EF107056CC30130556
:1011200009C0B3858502EF10D055EC20130509C026
:10113000B3858502EF1030556FF0CF8DEFF24F8BF6
:10114000372401404111130504800546A165EF10C5
:10115000404E938401832946938501830A85EF409D
:10116000A05F0A858D37F030130504809145EF109C
:10117000404C902413050480A145EF10804B90341F
:10118000C14513050480EF10C04A41016FF08F88FC
:10119000EFF20F861C35397132843EC81C2537A604
:1011A0000000AE843EC67C311306C6BFAD453EC4CA
:1011B0007C213EC25C313EC0834845000348350077
:1011C0003C21183114214818EF2060724C18154644
:1011D0004810EF4080639305910315466810A304FF
:1011E0000102EF4080624810A3080102EF40605600
:1011F00088C06810EF40E05508C021616FF08F8112
:10120000EFE27FFD2A8A05657971AE8913051584A1
:101210008545328902CA02CC02CE02D002D202D463
:1012200002D602C402C623180100EF10B009370528
:10123000160085451305050CEF1040409D673724C7
:10124000014093870780FC828D44E1474C081305D9
:1012500004803ECE26CCEF108031E177FC824C0832
:10126000C147130504803ECE3734014026CCEF1031
:1012700000302C00130504C0231641012314310152
:101280002317010023150100C164EF107007938438
:1012900004060C10130504C026D0231321032314C5
:1012A0000102EF10B0180C10130504C0EF10F0226B
:1012B0000C10130504C0EF10102D375501400C1011
:1012C000130505C026D02313210302D4EF101016F6
:1012D000130504C08545EF101035130504C0814582
:1012E000EF109038130504C08545EF105036854542
:1012F000130504C0EF10B03145616FE01FF1EFE25C
:101300003FEFAA843705080079712E841305150272
:10131000854502CA02CC02CE02D002D202D402D645
:1013200002C402C623180100EF10C07937051380EC
:1013300085454105EF1080308D67938707A0FC82BB
:1013400037150140E1473ECE4C088D471305054057
:101350003ECCEF10C0216084375401402C001305AF
:1013600004C064862317010023150100C164EF1037
:101370002079938404060C10130504C026D023138F
:10138000010223140102EF10700A0C10130504C0AF
:10139000EF10B0140C10130504C0EF10100113056A
:1013A00004C0854526D02313010223140102EF1047
:1013B0009027130504C08145EF10102B130504C0BE
:1013C0008545EF10D0288545130504C0EF10302463
:1013D00045616FE03FE4EFE2BFE1AA84370510000A
:1013E00079712E8413051502854502CA02CC02CEFE
:1013F00002D002D202D402D602C402C623180100CF
:10140000EF10406C37051580854513050504EF1076
:10141000E022A147FC8237150140E1473ECE4C084F
:101420008D47130505403ECCEF1060142C00375556
:101430000140648660842317010023150100416484
:10144000EF10006C130404060C103755014022D035
:101450002313010223140102EF10407D8545375507
:10146000014022D02313010223140102EF10B01B0C
:10147000814537550140EF10301F854537550140F4
:10148000EF10F01C854537550140EF1050184561AD
:101490006FE05FD8EFE2DFD53164130620039305D8
:1014A000F4B713054006A93B9305F4B713054006AE
:1014B000B9359305F4B713054006313F6FE09FD56A
:1014C000EFE21FD337440040AA8513050440EF1014
:1014D000D02B13040440930500082285EF10F02B55
:1014E0007DD96FE03FD3EFE2BFD04111AA84014420
:1014F00093170401C18363E5B70041016FE09FD1F9
:10150000B387840088232EC605045D3FB245CDB75E
:10151000EFE21FCE797185453705020002CA02CC81
:1015200002CE02D002D202D402D602C602C8EF1006
:10153000405B85451145EF10E0589147FC82371418
:1015400001408D473ECC4C08E147130504803ECE58
:10155000EF10E001A147FC824C089147130504807D
:101560003ECEEF10C000896737440040938707588C
:101570003ED00C10B7070C00130504403ED402D235
:1015800023160102EF1090110546930550521305E2
:101590000440EF10101B930760137C8685475C871F
:1015A000680085473EC8EF10C033854513050440E9
:1015B000EF10D01745616FE0FFC5EFE27FC379718F
:1015C00085453705080002CA02CC02CE02D002D2FD
:1015D00002D402D602C602C8EF10A05085452545A8
:1015E000EF10404E3705308085450905EF100005A6
:1015F000371401408D4785443ECC4C08E147130524
:1016000004C0E4823ECEEF0090768947FC824C080D
:101610009147130504C03ECEEF00707589673754BB
:101620000040938707583ED00C10B7070C001305F5
:1016300004C03ED402D223160102EF103006054644
:1016400093055052130504C0EF10B00F93074014D8
:101650007C86680085473EC84487EF108028854512
:10166000130504C0EF10900C45616FE0BFBAEFE2C4
:101670003FB8797185450945EF10E04237040240D3
:101680001305C446EF00F042B72700409387478018
:101690003EC2938741803EC4C1473EC693070008BF
:1016A0003ECC4C008D671305C4463ED402C802CA26
:1016B00002CE02D002D202D6EF0070569387C183C9
:1016C0003EC4930700403EC84C0093070002130538
:1016D00004483ED202C6EF00905445616FE09FB3CC
:1016E000EFE21FB10111854513050004EF10603FC3
:1016F00085454145EF10003D85477C828D473EC4BE
:101700004C00E147371501403EC6EF00506689475F
:101710007C824C0093078004371501403EC6EF00E1
:101720001065F16737240040938707203EC80C08F6
:10173000B7070C00130504803ECC02CA231E01002B
:10174000EF10C07537050240854513050548EF00C9
:101750009050854513050480EF10407D05616FE0D2
:101760007FABEFE2FFA8370402402A891305C44685
:10177000AE84EF00D04F15E9370500200905EF00D2
:10178000904F1305C4468145EF00F04C1304C44646
:1017900023262401A6852285EF00304D228585452C
:1017A000EF00704B05456FE0FFA60145EDBFEFE28E
:1017B0003FA48145B307B5008387070081E755370C
:1017C0006FE05FA58505C205C181EDB7EFE25FA2BD
:1017D0002A84370502404111130505482EC6EF0043
:1017E000104913070040098F83D6E18142074183E6
:1017F00001456383E602B2459387E1810145138683
:10180000C1839308F03F96236388E600131805010F
:10181000135808016365B80041016FE0BF9FB2969D
:1018200094223308A4002300D80096238506C2061C
:10183000C18263E5D80096A30505F1B723900700A0
:10184000E5BFEFE2FF9A3705024013050548EF00B8
:101850001042930700403385A74003D7E18142053A
:1018600041816367E500198D420541816FE09F9AD0
:10187000998F3E95D5BFEFE2BF9737A400001305BF
:1018800044CE35376DDD1305007DEF10C07737A4EA
:1018900000009945130504CFE93565DD13054006C1
:1018A000EF10607637A40000130584CF09376DDD93
:1018B00013054006EF10207537A40000130584D0EF
:1018C000FD356DDD1305007DEF10E07337A40000DA
:1018D000130544D2E93D6DDD1305007DEF10A072C4
:1018E00037A40000130504DAD9356DDD1305400671
:1018F000EF10607137A40000130584E04D3D6DDDED
:101900001305007DEF10207037A40000130504E5D7
:10191000793D6DDD1305401FEF10E06E6FE09F8F86
:10192000EFE27F8B5D71F000AC0013850183EFF077
:101930003F86938901D603A5090083A54900014686
:101940008146EF20704A0DC103A5890083A5C90017
:1019500001468146EF20504901C94146938501D691
:10196000138501D7EF30505F938701839437138736
:1019700001D836DE9427938401D736DCF433B7A53B
:101980000000938585E936DAF423138501C636D83D
:10199000D43336D6D42336D4B43336D2BC233ED057
:1019A000B6473ECEA6473ECC104F544F32C836CA3B
:1019B0001047544732C436C6104B544B32C036C25F
:1019C0000328070083284700DC4498449040D44013
:1019D000EF10706F138501C6EFF07FDD65DD130535
:1019E0002003EF10406261616FE03F82EFE25F80B1
:1019F00083C5018337A500001305C5C61384018381
:101A0000EF10306A0C3037A50000130585C7EF10C2
:101A100050692C2037A50000130545C8EF107068E9
:101A20002C3037A50000130505C9EF1090674C2036
:101A300037A500001305C5C9EF10B0664C3037A5B7
:101A40000000130585CAEF10D0656C2037A5000093
:101A5000130545CBEF10F0646C3037A5000013057B
:101A600005CCEF1010640C2437A500001305C5CC7D
:101A7000EF1030630C3437A50000130585CDEF104F
:101A800050626FE02FF9EFE2AFF6130101BFEFF004
:101A90005FDB55C9996783D7077E2A841306E03F29
:101AA000814513052101FC80EFE08FF7A28508082E
:101AB000EFF0DFD1B7A50000938545C108081324D6
:101AC0008400EF30D05641E03DCD37A600009306AC
:101AD000A500130686BCAD45480002C202C4231609
:101AE000010023070100EF1090601882130707FD23
:101AF0002388E182988293870183130707FD98B3B7
:101B00001883130707FDB8A39883130707FDB8B31D
:101B10001884130707FDD8A39884130707FDD8B3CB
:101B20001885130707FDF8A39885130707FDF8B379
:101B30001886130707FD98A79886130707FD98B71F
:101B4000EFF0DFEA0145130101416FE0AFECC1673F
:101B5000E976FD17014785066349B70013958700AD
:101B6000A1835D8D4205418182803306E50010220C
:101B7000B18F214613F81700858363050800B58FE0
:101B8000C207C1837D167DF60507F9B7EFE24FE680
:101B900001119386C1C302C602C802CA02CC02CE9A
:101BA00001479387C1C32D468A226C00BA9588A14C
:101BB00005078906E31AC7FEE22B8A2FAD452204EA
:101BC000498C4204680061374180018D133515004E
:101BD00005616FE02FE4EFE2AFE19387C1C3AA276D
:101BE0001307F00FDE2737A400006312E50213E5A8
:101BF00007F042054181130515F0EF30D0000326B0
:101C000004B6832644B6EF20E0426FE0AFE0220541
:101C10005D8DE5B7EFE2CFDD9387C1C3FA238A2755
:101C20002207598DEF30207EB7A7000003A607B624
:101C300083A647B6EF2000406FE0CFDDEFE24FDB39
:101C40009387C1C3FA278A2B2207598DEF30A07BD7
:101C5000B7A7000003A607B683A647B6EF20803DCE
:101C60006FE04FDBEFE2CFD89387C1C3BA2BCA2B0B
:101C70002207598DEF302079B7A7000003A607B6D9
:101C800083A647B6EF20003B6FE0CFD8EFE24FD6F8
:101C9000EFF0DFEF1DC183C7A18195E3EFF0BFF344
:101CA000138401D808C04CC0513F08CC4CCC5D3FD8
:101CB00008C44CC4853708C84CC86FE0AFD5054789
:101CC0006397E700EFF03FF1138401DAE1BF0947C2
:101CD000E395E7FEEFF03FF0138401DCE1B741113B
:101CE00026C4B7440040930550521385044022C6D1
:101CF0004AC2EF10202B8547631BF50A2A891385FA
:101D00000440EF1000291384B18108A0138504401A
:101D1000EF102028AA8513850440EF1000271387B1
:101D2000C181162310201385C18193871600C20735
:101D3000C1831EA39385C1C38606AE9692A29386E5
:101D4000E7FF8606B6958E211387C1C363972507E3
:101D50009386F7FF8606BA968E228D46639DD50040
:101D60008607BA9792A389471EA1B7070300238D60
:101D7000018085071CC31E219386E7FF8606BA965D
:101D80008E228D466395D5029386F7FF8606BA9616
:101D90009622639EB6008607BA9792A389471EA132
:101DA000B707030089458D07238DB1801CC33244DA
:101DB000A24412494101730020308946E39DD5FABF
:101DC0009386F7FF8606BA9603D806008D46E3147D
:101DD000D8FA8607BA9792A3B7070300238D21810B
:101DE0000EA1890741BF411122C637540040930517
:101DF0005052130504C0EF10E01A85476314F50430
:101E0000130504C0EF10E018AA85130504C0EF10F5
:101E1000C017130504C0EF10C017AA85374500404E
:101E200013050540EF1060161387C18183C6B18189
:101E30001E231386170012A3139717009387C1C39D
:101E4000BA9796A33244410173002030EFE2AFB855
:101E50002A89AE891304007D8544CE854A85EF002A
:101E600070236315950005456FE02FBA7D1475F456
:101E70000145DDBFEFE2CFB7376400402A898545D1
:101E800013050480EF00901D130504808545EF00C5
:101E9000B019B7050300850513050480EFF01FFB9B
:101EA00001461305048093058008EF00901DB704D8
:101EB00007009385240813050480EFF03FF993553C
:101EC000890013050480EF00101B93854408130557
:101ED0000480EFF0BFF79375F90F13050480EF004E
:101EE00090199385440813050480EFF03FF685456B
:101EF00013050480EF00F0146FE0CFB1EFE24FAFB5
:101F000015658945130505E2EFE06FDF09651305E7
:101F10007573EFF03FF66FE0EFAFEFE2EFAA3764D3
:101F2000004041118545AA8413050480EF00101379
:101F3000854513050480EF00300F37090300930532
:101F4000190013050480EFF07FF001469305800827
:101F500013050480EF00F012B709070093852908E4
:101F600013050480EFF09FEE9305000E1305048027
:101F7000EF0070109385490813050480EFF01FED02
:101F8000814513050480EF00100F93854908130560
:101F90000480EFF0BFEB854513050480EF00D00807
:101FA0009305190013050480EFF05FEA05469305D9
:101FB000900813050480EF00D00C93052900130549
:101FC0000480EFF0BFE885476319F50CB76A00405D
:101FD000B70900100149138A0A8093890904930BF9
:101FE000F00F154B85455285EF005007CE85528581
:101FF000EF00B00B65DD5285EF0030083C00CA975A
:1020000088A30084630A74010509E31D69FD814505
:1020100013850A80EF00900437650040854513055D
:102020000580EF0010029C85088637A90000A207F2
:102030005D8DEF30403D032689F68326C9F62204E4
:10204000EF10507FB7A7000003A607B783A647B7D6
:10205000EF2060762A8A8884AE8A418DEF30A03ADC
:10206000032689F68326C9F6EF10D07CB7A70000B7
:1020700003A607F783A647F7EF20E073B7A7000092
:1020800003A687B683A6C7B6EF20703E88C0CCC033
:1020900023A4440123A6540131A8854513050480D7
:1020A000EF00207A23A0040023A2040023A404004C
:1020B00023A60400268541016FE08F94EFE24F9341
:1020C00041112E84AA8485454145EF009021C147E6
:1020D0004C00371500407C83648460822315010026
:1020E000EF0010220546854537150040EF001055DA
:1020F000854537150040EF00905585453715004060
:10210000EF00F05041016FE0EF90EFE26F8E411170
:1021100093076014231501007C8489475C8528009F
:1021200085473EC67D2F41016FE0CF8EB717024035
:102130009843B706FFF041111367170098C3D843BF
:1021400037060200758FD8C39843B706F7FEFD1611
:10215000758F98C39843B706FCFFFD16758F98C31B
:10216000D843B70601FFFD16758FD8C39843B7064D
:1021700000ECFD16758F98C33707FF0098C723A69C
:10218000070202C402C69843C166558F98C3B716AA
:10219000024005679C42F18F3EC6A24785073EC4B8
:1021A000B24781E7A247E397E7FEB71702409C4397
:1021B0001397E7006357070685473EC632478547B2
:1021C000631FF704B7170240D843B706C1FFFD16D7
:1021D000D8C3D843D8C3D84313670740D8C3D8431C
:1021E000758FD8C3D843B7062900558FD8C39843F5
:1021F000B7060001558F98C3984393166700E3DD37
:1022000006FED843B7160240719BD8C3D843136764
:102210002700D8C32147DC42B18BE39EE7FE410192
:10222000828002C661BF01A097E1FF1F9381017CFC
:1022300017610020130101DD17850000130545011A
:1022400097E5FF1F938505DC1386818163FAC5003E
:102250008322050023A0550011059105E3EAC5FE80
:1022600013858181938541DE6377B50023200500C6
:102270001105E36DB5FEFD42739002BCAD42739053
:102280004280B7620000938282087390023097E226
:10229000FFFF938262D793E2320073905230EFF0E7
:1022A000FFE897F2FFFF9382028E7390123473005F
:1022B00020301C4141677917F98F1CC1232005008C
:1022C0002322050023240500B7070240232605002A
:1022D000138787006317E500D8431367F700D8C357
:1022E00082801387C7016316E500D8431367070F81
:1022F000FDB7138707036318E500D8438566938607
:1023000006F0558FE9BF138747046315E500D843EE
:10231000BD66C5BF138787056316E500D843B706BA
:102320000F00C5B71387C7066316E500D843B70685
:10233000F000C1BF138707086316E500D843B7064E
:10234000000FC1B7138787406319E50003A7474013
:102350001367F70023A2E74082801387C741631702
:10236000E50003A747401367070FEDB793870743BF
:10237000631BF500B707024003A7474085669386B5
:1023800006F0558FC1BFB707024013874744631655
:10239000E50003A74740BD66EDB713878745631780
:1023A000E50003A74740B7060F00E1BF1387C74604
:1023B0006317E50003A74740B706F000D9B71387B6
:1023C00007486317E50003A74740B706000F55BF4E
:1023D000138707496319E50003A7474D1367F70003
:1023E00023AAE74C82801387074A6317E50003A7F7
:1023F000474D1367070FEDB71387074B6319E500C8
:1024000003A7474D8566938606F0558FD1BF138786
:10241000074CE319E5FC03A7474DBD66FDB71C411A
:1024200061773D0794517D8F9C45D58F9449D58F19
:10243000D449D58F944DD58FD44DD58FD451D58FC8
:102440009455D58FD98F1CC1DC455CC19C411CC5FE
:10245000DC415CC582801C4189C593E717001CC123
:10246000828041677917F98FDDBF4CC18280484176
:102470004205418182809317350063D70700B70773
:10248000024023A2A74082809317250063D707004C
:10249000B707024023AAA74C8280B7070240C8C3EF
:1024A000828014455C4158450328C502D58FD98FD9
:1024B0001849370600A0D98F5849D98F184DD98FA0
:1024C000584DD98F1851D98F5851D98F1855D98F48
:1024D0001859B3E70701D98F18410A073A961CC269
:1024E000A1476396F6001C4293E707041CC25459A7
:1024F0008C4E9C42CD8FCC429205CD8F8C46A2054E
:10250000CD8FCC46C205CD8F8C4AD44AD205CD8F13
:10251000E206D58F5CC291676313F802145D904E9A
:102520009C42D18FD04294461206A206D18FD58FFD
:10253000B70600A09386461036971CC38280B70763
:1025400000A0938747103E97B7070010FD17F5B717
:10255000B70700A00A053E951C4189C593E71700FF
:102560001CC18280370710007917F98FD5BF9C45B1
:1025700013F7070113F8F70001C7D8413368E800E3
:102580008E2113F7F50F39C318418146854E3D4F13
:10259000930F800293028004214E3396DE00B3F83D
:1025A000C500631116039398260033131F011343CC
:1025B000F3FF3377E300B318180133E7E800639FB4
:1025C000F70550C98506E39AC6FD18C11307F00F39
:1025D0006375B70454412146854E3D4F930F8002E9
:1025E00093028004414EB398CE0033F715016392F5
:1025F000E8021317260001173313EF001343F3FF0C
:10260000B376D3003317E800D98E639DF701232AF0
:1026100015010506E319C6FD54C18280E39457FAFB
:1026200010C94DB7E39757FE23281501DDB70CC934
:10263000828019C20CC982804CC98280B7070140D0
:10264000635A0504DC4F935605011318050137073B
:10265000300013F6F60013580801B376E500635016
:102660000506639BE602930606010D46B316D600E7
:1026700093C6F6FFF58F99C9135755011377F73FA6
:1026800012073317E800D98F635705043707014055
:102690005CCF8280DC4345BF1317B500635607004B
:1026A0008D46B396C600E9B7135755011377F73F28
:1026B00012073317E8001347F7FFF98F6DBF6390D8
:1026C000E602370601405442370700F17D17F98FC3
:1026D000758F58C2D5F1370701405CC3828013174C
:1026E000B500635C07008D46B396C60093C6F6FF3F
:1026F000FD8EB707000FD58FF1BF13575501120795
:102700003317E8001347F7FF7D8FB707000FD98F06
:10271000D1B7EFD2FFAD797146212A8468082EC661
:10272000012C925737470F001307072433D7E702CE
:10273000C204C18093F404FCC2049306C003C180A8
:10274000B24563F4E6001307C00313160701418284
:10275000D18C46A0162061651305056AC206C182A8
:10276000F99AC206C18216A094416369D50486060F
:10277000B3D7D7029146139707014183BA87637392
:10278000D700914705064206C2074182C18312B0B5
:102790005EAC1E20DA21B62593E717001EA01E208E
:1027A000558FC207C18393F757BFD98F1EA09A25B3
:1027B000DE25D98F1EA445616FD0DFA5EA213166E1
:1027C0007D16631DC5020D46B386C602B3D7D70278
:1027D000C207C1839396470199E293E71700A16668
:1027E000D58F9306C0123307D7029306803E334736
:1027F000D7020507420741831AB059BF6546B38621
:10280000C602B3D7D7029166C207C183D58FD9B7A5
:102810001E2189C593E717001EA18280C207C183CC
:10282000F99BC207C183CDBF1E2189C593E707105D
:102830001EA18280C207C18393F7F7EFC207C1834D
:10284000C5BF1E2189C593E707201EA18280C2074C
:10285000C18393F7F7DFC207C183C5BF1E2189C5B6
:1028600093E707401EA18280C207C18393F7F7BF99
:10287000C207C183C5BF0EA982800A291375F50F4F
:10288000828093F7E50F19C293E71500C207C18351
:102890001EA982805E290A2D42055D8D6D8D22055F
:1028A00021810D8D133515008280411102C402C6AD
:1028B00093D7C5012AC63EC4A247A205A18199CBE0
:1028C000B247D1073EC6B247884341016D8D3335CB
:1028D000A0008280B247C181E107EDB723A0A182A9
:1028E000828003A70182894710216311F702143106
:1028F0008D4763EDD7003C219A0637E700E0960745
:10290000D58F93F7F70F32972300F74054410547CF
:10291000935756003317C70089CA938707048A075D
:10292000B7E600E0B69798C3828093870706C5BFD5
:10293000371702405C439146B18B6385D700A146AF
:102940006382D706B7177A00938707201CC1371612
:1029500002405C42370700201307C7009183BD8BFC
:10296000BA9794231C41B3D7D7005CC15442A182CB
:102970009D8ABA969422B3D6D70014C55442AD822C
:102980009D8A36971823B3D7E7005CC55842398330
:10299000937637001387C18036971823B3D7E702A1
:1029A0001CC982805C435843C166C983758FB7F6E2
:1029B000FF1F83A6C670BD8B890713961601634857
:1029C0000600C54601466392D702C94739A8894621
:1029D000638FD702BD46638ED702C146638ED7028E
:1029E000C54601466393D700C1471DEF37470240F4
:1029F00003270780418B05C737177A001307072085
:102A0000B307F7021CC121D61C41858381B701465B
:102A10006DBF0546B547D1BF0146BD47F9B737176A
:102A20003D0013070790E9BFB7150240D85593162C
:102A3000F700D85563DF060411833D8B930617001A
:102A400037177A00130707203357D70218C1D45518
:102A5000A182BD8A8DE295463307D702058318C14E
:102A600037170240585714413D8B050733D7E6020C
:102A700018C1184171B785456394B600E546E9BFB2
:102A8000BD456396B600D1463387E602C9BF8906C5
:102A9000E5BF3D8B9306170037177A001307072011
:102AA0003357D702F1B799C5371702405C4B5D8D9C
:102AB00048CB8280B7170240D84B1345F5FF798D7C
:102AC000C8CB828099C5371702401C4F5D8D08CF57
:102AD0008280B7170240984F1345F5FF798D88CF54
:102AE000828099C5371702405C4F5D8D48CF828048
:102AF000B7170240D84F1345F5FF798DC8CF8280B4
:102B00001E2137370140930607C0C207C183630007
:102B1000D504B7060040630CD502938606406308CF
:102B2000D502B7160040138606806302C50293865D
:102B300006C0630ED50013070740630AE500375748
:102B40000140930607C06304D5006316E500BA216F
:102B500093F7F7F8D98F37170040630CE500130798
:102B600007406308E50093F7F7CFFA21C207C18356
:102B7000D98F1EA1DE215EB59E211EB5B73701405B
:102B8000138707C0630EE50093870740630AF500CB
:102B9000B7570140138707C06304E5006314F500CD
:102BA0009C251EB985475EA982801E31922103D8DB
:102BB0002500C207C183F99BC207C1831EB11E3124
:102BC00056211A2DC207C183420741831377C7F8E4
:102BD000518F9225F59BC20633660601D18F373699
:102BE0000140130806C0C182630E050113060640AA
:102BF000630AC50037560140130806C06304050187
:102C00006310C502B225DD9B03D8E500D18FD22128
:102C1000ED9B93F6F6CFD18FD22533660601D18E88
:102C200056A11AADFA215AB91EB182801E316577BC
:102C30001307F7CFC207C183BD9BC207C1831EB173
:102C40001E31562103D88500C20713960601162DA2
:102C5000C18393F7F7FD758F96214182A206558FA8
:102C6000B62142074183B3E606019206D58FB736F7
:102C70000140C207138806C0C183630E0501938615
:102C80000640630AD500B7560140138806C06304A6
:102C90000501631ED502B62593F7F7F703D8C500E3
:102CA0009206D58FD621C207C183920693F7F7FB10
:102CB000D58FFD769386F63FF18EF225C207C1834C
:102CC000336606010A06D18E13960601418252A18F
:102CD0001AADFA211ABD1EB182801E3103D88500BB
:102CE000C207C18393F7F7EFC207C1831EB11E313C
:102CF00056215A2DC2071396060142079621418399
:102D00001377C7F8558FB621C18393F7F7DFB3E682
:102D10000601A206D58FB7360140C207138806C048
:102D20004182C183630E050193860640630AD50084
:102D3000B7560140138806C063040501631FD5021E
:102D4000FD769386F67FF58FB62503D8C500A206DB
:102D5000D58FD621C207C183A20693F7F7BFD58FBF
:102D6000F576FD16F18EF225C207C18333660601A2
:102D70001206D18E13960601418252A15AADFA2154
:102D80005ABD1EB182801A31FD77FD17F98F1EB131
:102D90000358050256215E2D65771396060196218C
:102DA0001307F7CF7D8FF977A206FD17558FB3F77D
:102DB0000701B62103D8850042074182B3E6060128
:102DC000B206D58FB7360140C207138806C04183CB
:102DD000C183630E050193860640630AD500B7568A
:102DE0000140138806C063040501631BD500F1761A
:102DF000FD16F18ED2251A06D18E13960601418258
:102E000052A15AADFA212310E5041EB182801E2181
:102E100089C593E717001EA18280C207C183F99B71
:102E2000C207C183CDBF8357450491C52167D98FA0
:102E30002312F5048280C607C583DDBF5E2501C667
:102E4000DD8D4EA5828093C5F5FFFD8DDDBF1E2172
:102E500089C593E707081EA18280C207C18393F743
:102E6000F7F7C207C183C5BF1A2DFD779387F77F98
:102E7000F98FA205CD8FC207C1831EAD82804EB9E6
:102E800082800EBD82804EBD82802310B504828078
:102E900093C5F5FFC205C1810EA98280EFD24FB55F
:102EA0001629F577FD17F58FF621DA257971D58F7B
:102EB0001EA95625FD779387379FF58FD6212A8443
:102EC0002EC6D58F9625D58FB625D58F5EA55E29C2
:102ED000C207C18393F7F7CFD98F5EA96808EFF0D7
:102EE0003FA5B747014093870780B245631EF402B0
:102EF000A2576547B387E7029841930640060A0741
:102F0000B3D7E70233D7D702B3F7D7021207920736
:102F100093872703B3D7D702BD8BD98FC207C1834D
:102F20001EA445616FD00FAF9257E1B791C55E25E2
:102F30000967D98F5EA582805A25F977FD17F98F29
:102F4000D5BF13F7F50F85471583B395B700631900
:102F5000F7009307C500984301CED98D8CC38280BA
:102F6000894693074501E318D7FE93070501E5B7A6
:102F700093C5F5FFF98DDDB75E2901C6DD8D4EA93C
:102F8000828093C5F5FFFD8DDDBF93F5F51F4EA142
:102F900082804A211375F51F82800A216D8D333599
:102FA000A000828013F7F50F85461583B397B6000E
:102FB0006311D7025A25F98F1A210145420741832F
:102FC00081CB0545A181B315B5006D8F3335E00088
:102FD000828089466314D7001A29F1BF5A29E1BFBC
:102FE00083A7818037177A0013070720B3D7E7023A
:102FF00093F7F70F2383F1821307803EB387E7022D
:103000002392F1828280B7F700E0D8438146799B12
:10301000D8C303D741823306A70290CBD4CB9843C1
:103020001367070198C398431367170298C3D843DF
:10303000058B75DF9843799B98C38280EFD24F9BB5
:1030400001112A84854537050200EFF09FA98545C7
:103050001145EFF03FA791477C82371501408D471E
:103060003EC44C00E147130505803EC6EFF02FD06B
:1030700022C837440040B70708000C081305044075
:103080003ECC02CA231E0100EFF05FE105461305A6
:10309000044093055052EFF0DFEA854513050440E4
:1030A000EFF0DFE805616FD0EF96EFD2CF92B74433
:1030B0000040AE8932890144938404406345240171
:1030C0004A856FD08F94930500042685EFF0FFECBE
:1030D0007DD9B38789008385070026850504C2054D
:1030E000C181EFF09FEAD9BF138701811C4393860A
:1030F00041DE3E95636BD500B7860020938606803F
:1031000063E5A60008C33E858280FD57EDBF01112F
:1031100006CE2EC60DCD1841AA8705C358417D5550
:1031200011CB8546631BD70098472300070023A2D5
:1031300007000545F240056182809847B24614A316
:103140009847050798C7D8437D17D8C3DDB705460C
:103150006C00EFF09FF5F1BF797122D426D24ECEEC
:1031600052CC56CA06D64AD05AC82A8AAE8A328467
:1031700081449309000263440602B3879A0083875F
:1031800007009DE363D6840263D2E402198C93F7AF
:1031900026009309000281C719E393090003858A79
:1031A000014985EA228931A88504C1BF058CC5B7CC
:1031B0000144F1BFCE8552853AC6EFF05FF5324744
:1031C0007D19E34920FF2289635304000149330438
:1031D000244163CBE402CA84B3872441D697838514
:1031E0000700A1E1228963432005635304000144E1
:1031F00033059400B250225492540259F249624A63
:10320000D24A424B45618280B3049740268B930596
:10321000000352857D1BEFF09FEFE31A0BFE26990A
:103220005DBF5285EFF0BFEE85047DB7CE85528538
:10323000EFF0FFED7D1945BF5D71A6C252DC86C679
:10324000A2C4CAC04EDE56DABA843E8A9DE1930714
:1032500000030147D28626862C08FC84EFF0DFEFBE
:10326000B640264496440649F259625AD25A6161E0
:1032700082802A893684C68A91CAA9470144631785
:10328000F60063D50500B305B0400544A30701026D
:103290009307F102A546130568FC33F7C50263D313
:1032A000E6002A9713070703A38FE7FE9389F7FF2A
:1032B00033D7C50263FBC50409CCB9C813772A000C
:1032C00021CB9305D0024A8542C6EFF05FE4324835
:1032D000FD1493774A008DC39307100693050003EE
:1032E0004A85631FF802EFF09FE2930580074A8545
:1032F000EFF0FFE10904F9145687D2862686CE85C1
:103300004A85EFF07FE52295A1BFBA85CE8771B7D8
:103310001307D002A38FE9FE01449389E7FF55BF4D
:10332000EFF0FFDE93058005D9B71D71CAC8CEC680
:10333000D6C2DAC03A8986CEA2CCA6CAD2C45EDE94
:1033400062DC66DA6AD86ED633E7C500BE89AA8A1F
:10335000428B8347010631E38DCF8D679387D70278
:103360007C84230501000147DA864E862C005685B1
:10337000EFF09FDEF6406644D6444649B649264AF9
:10338000964A064BF25B625CD25C425DB25D25619F
:103390008280930700037C84F9B7368AAE84328436
:1033A00063000902A9470149639CF600635A0600BD
:1033B000B304B040B33790003304C0401D8C0549BE
:1033C000A30F0100130DF101935DFA41A54C138C7D
:1033D00068FC5286EE862685A285EF00100D63D329
:1033E000AC00629513050503A30FADFE5286EE8671
:1033F0002685A285930BFDFF05236366B401639ABE
:103400008D0263F84403630D090063880902937712
:103410002B0085C79305D0025685EFF05FCFFD19CD
:103420000147DA864E86DE855685EFF0FFD24A9553
:1034300091B7AA842E845E8D69BF9307D002A38FB3
:10344000FBFE0149930BEDFFE1BF5D71A6C2CAC04F
:10345000AA842E892E85B28586C63ACE42CCA2C4D5
:103460004EDE52DCB289368A56DA5AD8BE8A5ED629
:1034700062D466D2468C6AD0EF10F07F2A8BAE8B76
:1034800001468146CE854A85EF1080277247624803
:103490007D81BA872AC00547E288D286DA855E86B2
:1034A0002685EFF09FE82A8D9305E0022685EFF050
:1034B0001FC6050D8147854C0144294763CE570738
:1034C0005A85DE85EF20E0062A86AE864A85CE85BF
:1034D000EF10E0792A89AE896685A285EF20600524
:1034E0002A86AE864A85CE85EF10E02CEF10B078A4
:1034F00013D6F541318DB347B600B305C54033351A
:10350000B5003386C74002C0E288D687D286098ECE
:10351000094826850547EFF05FE1B64026446A95E5
:1035200096440649F259625AD25A425BB25B225C17
:10353000925C025D61618280B30687028507333445
:103540009703B30C9703369495BF5D715AD837AB88
:103550000000A2C4A6C2CAC04EDE52DC56DA5ED655
:1035600062D486C666D2AA892E893284014A8144F1
:10357000930B5002930AB002294C130B8BF783056F
:1035800009008DE56386090081454E85EFF03FB85F
:10359000B6402644268506499644F259625AD25AC4
:1035A000425BB25B225C925C6161828063887501E0
:1035B0004E85EFF0DFB585040509D1B78307190003
:1035C000930C1900639A7701930550024E85EFF032
:1035D0001FB485046689CDB7D5D76387570563C8FF
:1035E000FA00130730026384E704814705A013073C
:1035F000D002638AE70013070003E398E7FE930C09
:103600002900894721A0930C2900854703870C00D6
:103610006303570563C1EA0293063002630BD702C6
:1036200066890145A54535A8930C29007DBF930CFB
:1036300029009147E1BF9306D0026309D7009306A2
:103640000003E31FD7FC93E7270031A0850C8547D3
:10365000C1BF93E74700850CE1B733058503050932
:10366000369503070900930607FD13F6F60FE3F6F8
:10367000C5FE1306E0029946631EC7000509814690
:10368000254603070900130707FD9375F70F6375B8
:10369000B602368A030709001306A0066309C70AA3
:1036A0006341E6021306C0046303C70A13068006DB
:1036B0006308C70801461DA8B38686030509BA96A4
:1036C000C9B7130640076304C7081306A0076300C1
:1036D000C7089305C0060146631AB70083051900A1
:1036E0000D466394E5000509114605090307090025
:1036F000930500061308100663C4E50013081004C0
:103700009305700663C2E506930550066359B71624
:103710009305700463CFE502130650046351C71686
:1037200093063004E31AD7E81840930C4400A30E24
:103730000100230EE100BE8601472A866C0871A0B5
:10374000830519000146E393E5FA090945B7050920
:1037500095B793063006E309D7FC63CEE6069306D9
:1037600080056303D70289BD930630076306D7043B
:1037700063CDE6029306F006630BD70C93060007B1
:1037800093E74700E31AD7E21147631BE60A1D04DB
:10379000137784FF0C43504313048700C28802C090
:1037A0003E880147AA87C146B9A093065007630324
:1037B000D7069306800775B71840930C4400DA8546
:1037C00011C3BA855287BE862A864E85EFF0DF98F0
:1037D000AA946684D5B311476314E6021D041377D7
:1037E00084FF0C43504313048700C28802C03E8804
:1037F0000547AA87A9464E85EFF03FB3AA946DBB53
:103800000C40D28811042A87854629464E85EFF060
:10381000BFA2EDB71147631FE6001D04137784FFB5
:103820000C43504313048700C28802C03E880147FE
:10383000AA87C9B70C40D28811042A878146F1B7FC
:103840000C40D28811042A8781464146C1B71147EE
:103850006310E6021D04137784FF0C4350431304E6
:103860008700C28802C03E880147AA87A14661B787
:103870000C40D28811042A878146214641BF1D048D
:10388000137684FF130486000C4250423307D54060
:10389000C2887D173E884E85B687A946EFF0FFBAED
:1038A000B1BF39712ED232D4AA855010014506CE4F
:1038B00036D63AD83EDA42DC46DE32C6EFF0FFC8F2
:1038C000F24021618280397132D43EDA2AC630104A
:1038D000FD57480006CE36D63AD842DC46DE02C254
:1038E0003EC432C0EFF07FC6F24021618280397160
:1038F00032833EDA2EC42AC67010854748009A8566
:1039000006CE36D63AD842DC46DE3EC232C0EFF0B2
:10391000DFC3F24021618280B687B2882A832E8875
:10392000639B061463F8C50A4167636BE61AB70721
:1039300000016360F63493568601E1471767000083
:103940001307476C36971823BA97130700021D8F89
:1039500019CB3398E500B357F500B318E60033E808
:1039600007013313E50013D608013355C8029396B7
:103970000801C182935703013377C802B385A602B9
:1039800042073368F700637AB80046989307F5FF5B
:10399000636418016365B8303E853308B840335717
:1039A000C8024203135303013378C802B386E60208
:1039B000420833686800637BD80046989307F7FF96
:1039C0006365180179176363D8003E874205598DF6
:1039D0008145828001E60547B358C702416763E825
:1039E000E80EB707000163EAF82893D68801E1479B
:1039F000176700001307076136971423BE969307D5
:103A00000002958FFDE7939E08013387154113DF70
:103A1000080193DE0E018545935703013355E703F3
:103A20003377E703B306D5034207D98F63FAD7008C
:103A3000C6971307F5FF63E4170163E5D7263A85B8
:103A4000958F33D7E703420313530301B3F7E7031B
:103A5000B30ED703C207B3E7670063FBD701C6976E
:103A60009306F7FF63E51701791763E3D7013687FC
:103A70004205598D828063E1D504C16763E1F60494
:103A8000B707000163E3F61E13D786016148976705
:103A9000000093872757BA979823130E0002429786
:103AA000330EEE40631A0E0C63EDB61C3335C500C1
:103AB0001345150081458280814501458280930729
:103AC000F00F63F3D71C13D786002148C9B713073B
:103AD000F00FC686E37E17F193D68800A14709BF91
:103AE0001307F00FB286E37BC7E493568600A14725
:103AF000B1B5B398F80033D6D50013DF0801335EB3
:103B0000E6033397F500B356D500558F939E080111
:103B100093DE0E013313F50093550701B376E603E8
:103B2000B387CE03C206CD8E63FBF600C69613069E
:103B3000FEFF63E4161763F2F616791EC6969D8E95
:103B400033D6E60393170701C183B3F6E603338543
:103B5000CE02139706015D8F637BA70046979307FC
:103B6000F6FF636817136376A712791646979315C5
:103B70000E01098FD18D4DB5B357E600B396C6013E
:103B8000DD8E33D3E50013DF0601B357E303939EC5
:103B9000060193DE0E013398C5013357E500336803
:103BA0000701935808013316C6013373E303B38545
:103BB000FE024203B368130163FBB800B698138793
:103BC000F7FF63EAD80C63F8B80CF917B698B38816
:103BD000B84033D7E803420813580801B3F8E803A4
:103BE0003383EE02C208B3E5080163FB6500B695B6
:103BF0001308F7FF63EDD50863FB65087917B695E1
:103C0000C207416FD98F1307FFFFB3F6E70093D8C0
:103C10000701718F4182B38EE602B3856540B3869A
:103C2000C60213D80E013387E802BA96C2963386CD
:103C3000C80263F3E6007A9693D80601469663E2DB
:103C4000C5026385C5003E858145828041677D1739
:103C5000F98EC206B3FEEE003315C501F696E37485
:103C6000D5FE1385F7FF8145828013D706014148B1
:103C700039BD93560601C147D1B193D60801C1475A
:103C800085BB8145054582803687014809B5428755
:103C900085BF3E86E9BDBA871DBF328E4DB5791509
:103CA0004698E5B97915C69761BBB68732882A83ED
:103CB0002E872E8E6391061463F0C50A41676376E2
:103CC000E61A1307F00FB2866375C7009356860095
:103CD000A147176700001307E732369718239308A8
:103CE0000002BA97B388F840638C0800B3951501B9
:103CF000B357F5003318160133EEB700331315012F
:103D000013560801B357CE0213150801418193568B
:103D10000301337ECE02B307F502420E3367DE00A5
:103D20006378F7004297636507016373F700429772
:103D30001D8FB356C70293170301C1833377C702A0
:103D40003305D5024207D98F63EBA7083385A74017
:103D5000335515018145828001E605473358C70276
:103D60004167636BE80EB70700016364F82A935656
:103D70008801E147176700001307C7283697182303
:103D800093080002BA97B388F840639A081E131E7E
:103D90000801B385054113560801135E0E01135740
:103DA0000301B3D6C502B3F5C502B386C603C20587
:103DB0004D8F6377D700429763640701636AD72604
:103DC000158F3355C7024203135303013377C702DC
:103DD0003305C5034207B367670063F8A700C297BE
:103DE00063E5070163F3A700C2973385A740335506
:103DF0001501814582802A88E3EFD5F4C16763E528
:103E0000F604B707000163E2F62013D38601E14808
:103E1000976700009387071F9A9703CE0700130345
:103E20000002469E3303C3416319030463E4B600F2
:103E30006369C5003308C540958D33370501338765
:103E4000E5404285BA8582809307F00F63FBD71C5B
:103E500013D38600A1486DBF1307F00FC286E37B22
:103E600007F193568800A14731B7B7070001636691
:103E7000F61A93568601E147A9BDB357C601B3961A
:103E80006600DD8EB3D8C50113D70601B3DEE802A4
:103E9000139F0601B357C501135F0F01B39565006A
:103EA000DD8D13D805013316660033156500B3F8B0
:103EB000E802B307DF03C20833E80801637BF800B8
:103EC00036989388FEFF6363D8166371F816F91E5F
:103ED00036983308F840B357E802C205C1813378F9
:103EE000E802330FFF02131708014D8F637BE701D0
:103EF00036979385F7FF6369D7126377E713F9174E
:103F00003697C20EC162B3EEFE001388F2FFB3F81B
:103F10000E019355060193DE0E0133780601B38F2F
:103F200008033307E74133880E0393D70F01B388A3
:103F3000B802C298C697B38EBE0263F30701969E7D
:103F400041687D1893D50701B3F70701C207B3FF96
:103F50000F01F695FE976362B70A630EB708B307C1
:103F6000F5403335F500B305B740898D339EC50163
:103F700033D567003365AE00B3D565008280331852
:103F8000180133D7F50013560801B356C702131EA4
:103F90000801B357F500135E0E01B3951501DD8DD1
:103FA00093DE0501331315013377C702B307DE0231
:103FB00093160701B3E6D60163F8F600C29663E5EF
:103FC000060163F3F600C2969D8E33D7C60293971F
:103FD0000501C183B3F6C6023307EE0293950601CD
:103FE000DD8D63F8E500C29563E5050163F3E50047
:103FF000C295998D6DB3E374F5F63386C740B3B7B8
:10400000C700B6979D8DB28799BF13D30601C148EB
:1040100001B593560801C147B1BB93560601C1478C
:104020004DB936838148EDB3AE87E1BDC68E55B537
:10403000429779B3397193D7450122DC4AD856D2D9
:104040002A891394C50006DE26DA4ED652D45AD0F9
:104050005ECE13F5F77F318093DAF501630B05101F
:104060009307F07F630BF514135AD9010E043364E0
:104070008A00370A8000336A4401131B3900930415
:1040800015C00144814B13D846011399C60013781B
:10409000F87FB2881359C90093D9F601630E080856
:1040A0009307F07F6300F8041357D6010E093369B4
:1040B0002701130818C0B70780003367F900931869
:1040C0003600B38404418145BD4733C83A0163E4F7
:1040D000871A976700009387E7EA0A043E94104026
:1040E0003E9602863367C9009384148063120710DA
:1040F0001364240081488945C1BF1306F07F8147BE
:104100000147B207F25062545206B1837E08D18F44
:10411000B3E70701D2544259B259225A925A025B6C
:10412000F24B3A85BE852161828001481306F07FFB
:10413000B70708000147F1B73367C9004DC76308E7
:1041400009304A8532C4EF10E0592246130755FF63
:10415000F547930685FF998F3319D900B357F600B9
:1041600033E72701B318D60026959304353F8145E0
:10417000A1BF336A240163030A0636C632C463064C
:10418000042A2285EF1000562246B246AA8413075D
:1041900055FF754A138B84FF330AEA4033146401D8
:1041A000335A4901336A8A00331B69011305D0C0B1
:1041B000B30495400144814BF9B5336A2401631877
:1041C0000A002144014B9304F07F894B6DBD228A84
:1041D0004A8B31449304F07F8D4B75B51144014BEC
:1041E0008144854B4DB51364140081488545E9BD74
:1041F000136434004A878D45C1BD630A052E854787
:10420000898F9306800363DDF632014681470147BB
:10421000CDBDCE868947638DF53A8D47E387F5F0AE
:1042200085473688E383F5FE1385F43FE357A0FC0A
:1042300093F778006396072893D638009317770092
:1042400063D80700B70700FFFD177D8F1385044073
:104250009307E07FE3C3A7EA1316D70193179700EC
:10426000B1833367D6001376F57F61BDD68652875A
:10427000DA88DE8545B763614723630DEA20DA8675
:10428000FD145284014B9317870013D388013363C5
:10429000F300935E0301B357D403131F0301135FAD
:1042A0000F0193D50601139E88003374D40333079E
:1042B000FF024204C18D63FBE5009A951386F7FF68
:1042C00063EE652663FCE526F9179A95998D33D739
:1042D000D503C206C182B3F5D5033306EF02C2058A
:1042E000D58D63FBC5009A959306F7FF63E66524B9
:1042F00063F4C52479179A95C20741645D8F9307CB
:10430000F4FF3375F70093580701935F0E01B377FD
:10431000FE00B302F502B386C540B383F80293D51D
:1043200002013386AF021E962E963385F80363731F
:1043300076002295C168FD18935506013376160163
:104340004206B3F81201AA95469663E6B612638256
:10435000B6123306CB408D8E333BCB00338B664198
:104360001385F43F630C6317B358DB0393550601C1
:10437000337BDB03B3061F03420B33EB6501637B27
:10438000DB001A9B9385F8FF636D6B20637BDB205A
:10439000F9181A9B330BDB40B356DB03420641820C
:1043A000337BDB03330FDF02420B33666601637B33
:1043B000E6011A969385F6FF6367661E6375E61F2E
:1043C000F9161A96C208B3E8D8009395080193D25B
:1043D0000801C181B38EF5023306E641B385BF0201
:1043E00093D60E01B387F202BE95AE96B38F5F02ED
:1043F00063F4F600C167BE9FC165FD1593D7060142
:10440000ED8EC206B3FEBE00BE9FF696637FF60930
:104410001A969387F8FF6369661A6368F619630F43
:10442000F61BBE8893E8180011B54A85EF10802B63
:1044300013075501F145930405022246B246E3DA1B
:10444000E5D4130485FF331A8900014B85B3328507
:1044500032C4EF10202913075501F146AA872246DE
:1044600013050502E3D6E6CEE1173317F6008148BF
:10447000E5B9E370CBEE729B3335CB011A95AA9662
:104480001305F7FF6378D30263E6B6106382D51095
:104490002A87C1B5E3651BDF93551B009316FA010C
:1044A00013541A00CD8E7E0BF9BBE31DF6F7E38F94
:1044B00006D6B9BFE31ED3FCE378CBFD2A8751BDF6
:1044C00093F7F8009146E389D7D693B7C8FF938650
:1044D000480093C717008D823E978DB3814685476C
:1044E000E34CA0FEFD58E31C05D0930410C08547A3
:1044F0001385E441B316A70033D6F8003395A8001E
:10450000D18E3335A000C98E13F676003357F700ED
:1045100001CE93F7F60011466388C70093874600E3
:10452000B3B6D7003697BE869317870063D80704C3
:10453000054681470147F1B636877DBBB28779B31F
:10454000FD46E3D7F6FA0556098E93060002335668
:10455000C7006388D7009387E443B317F700B3E835
:10456000F800B3361001D18E13F67600814701CEE4
:1045700093F7F60011460147E392C7FA93179700A5
:104580001316D701B18313D73600518F014695BE5C
:10459000E370CBF0729B3335CB011A957917AA964D
:1045A0004DBBAE88C5BBAE8631BD93171E0033BE72
:1045B000C70172931A96F9183E8EE315F6E7E307E2
:1045C000DEC693E818009DB1BE88E30AF6FF99BDE8
:1045D00036881306F07F8147014725B6E367DEFC86
:1045E000BE88E310DEFE99B113D74501B70710006E
:1045F000FD1713D846011377F77F9308F07F33FE3A
:10460000B700AA8EF58FFD81328F1378F87FFD8277
:10461000630B170105436306180163140701630D5B
:10462000FE001A858280B368AE000543E39B08FE56
:10463000E319E8FED18FF5F70543E394EEFF01435C
:10464000E381D5FE054371FF3365AE003333A0002F
:10465000C9BF13D74501B7071000FD1713D846018E
:104660001377F77F9308F07F33F3B7002A8EF58F27
:10467000FD81B28E1378F87FFD8263081703630013
:1046800018030DEBB368A300631408005D8E29CAFC
:10469000638508046388D502054595ED8280B3E8FB
:1046A000C700E38008FE795582803365A30065FD6D
:1046B000630CE802631408005D8E79DEE39ED5FC8E
:1046C000E34CE8FC63480701E3E867FC6303F3029B
:1046D000637FF30081E57D558280F5DE05458280AC
:1046E0000145E39B08FA82805D8E69DA6DBF014562
:1046F0008280E3E3CEFB0145E372DEFBE5F1E1BF3F
:1047000013D74501B7071000FD1713D846011377DB
:10471000F77F9308F07F33FEB700AA8EF58FFD81F7
:10472000328F1378F87FFD82630E1703630D180133
:1047300029E3B368AE00631F08005D8E01EE0143FC
:10474000638C080421A8B3E8C700094363960804F2
:104750006DD305A0638408046385D50205438DCD20
:104760007D531DA8B368AE00094363970802630A2E
:10477000E802631408005D8E75D2E391D5FEE34F25
:10478000E8FC63490701E3EBC7FD630FFE0001434B
:104790006374FE00F1D505431A858280EDFE7D53DA
:1047A000E5BF5D8E79DACDBFE36ADFFB0143E3F558
:1047B000EEFFF5F175B739714AD813D945014ED6D8
:1047C00052D456D29399C50006DE22DC26DA5AD09E
:1047D0005ECE1379F97F2A8A93D9C90093DAF5015D
:1047E000630D090E9307F07F6306F9181354D50182
:1047F0008E09B36934013704800033E489009314CF
:104800003500130919C08149814B13D74601139A0A
:10481000C6001377F77FB285135ACA0013DBF6017F
:10482000630B07109307F07F6303F7049357D601D8
:104830000E0A33EA4701130717C0B7078000B367B2
:10484000FA00931536003A99814833C76A01BD468C
:104850003A851308190063E8361717560000130647
:1048600066768A09B29983A60900B2968286B367F2
:10487000CA001309F97F6399071293E9290081455A
:104880008948E1B701479307F07F37040800814466
:104890003204D20731807E075D8C598CA285F2509C
:1048A000625426854259D254B259225A925A025B16
:1048B000F24B216182805A853E84AE84C68B894743
:1048C000638DFB0E8D47E38FFBFA85472A87639E36
:1048D000FB3881470144814465BF33E4A90061C0CE
:1048E00036C632C4638C092A4E85EF00B05F22467B
:1048F000B246AA87130755FF7544938487FF198C26
:10490000B399990033548A0033643401B3149A0084
:1049100013D746011309D0C0139AC6001377F77F47
:104920003309F9408149814BB285135ACA0013DB20
:10493000F601E31907EEB367CA00B1C7630F0A2295
:10494000528532C4EF00105A22462A87930655FF3B
:10495000F547930587FF958F331ABA00B357F600D2
:10496000B3E74701B315B6003309E9401309D9C0CD
:104970008148E1BD33E4A90001ECA1498144130958
:10498000F07F894B59B593E919008145854875BD7C
:104990004E84AA84B1491309F07F8D4BBDB591496E
:1049A00081440149854B95B593E93900D2878D48FB
:1049B00069BD89475685E397FBF02A879307F07F07
:1049C00001448144F1B5C16E1386FEFF93D6040104
:1049D00013DE0501F18CF18D338695023383B60227
:1049E0009358060133059E021A95AA98B382C6030E
:1049F00063F36800F692C16F1383FFFF33F567001E
:104A000093D30701B3F76800C207337366003E9380
:104A10003306950293D80801B387A602135F0601F7
:104A2000B3849302BE94FA94B38E760263F3F400D7
:104A3000FE9E416A9307FAFF935F0401B376F40088
:104A4000B3F9F4007D8EC1803384D502C209338F5F
:104A5000D401B299CE98B307DE02935E0401B38508
:104A6000BF02AE97BE9E330EFE0363F3BE00529E9E
:104A7000C1679385F7FF33F6BE006D8C4206229620
:104A800093DE0E01B305D502769E3385AF0213D4B3
:104A90000501B386D302AA96A296B38FF30363F3FC
:104AA000A600BE9F41657D15B3F7A600C2076D8DB8
:104AB000AA97B3855800B3B93501FA97B2953384F4
:104AC000370133B6C500B30EC4013385CE0033348D
:104AD0003401B3B7E701C18F33BECE0113D4060151
:104AE0003336C5003E943366CE00939495003294DD
:104AF0007E94B3E46400260493567501B3349000A9
:104B0000DD8193179500CD8C558CDD8C9317740047
:104B100063DB070093D7140085889316F401DD8CBE
:104B2000D58C058042899307F93F6359F00893F6C5
:104B3000740081CE93F6F40011466388C600938614
:104B40004400B3B496002694B6849316740063D8D8
:104B50000600B70700FFFD177D8C930709409306F9
:104B6000E07F63CFF60E93D634009314D40126046D
:104B7000D58C318093F7F77F21BB328532C4EF00AB
:104B8000703693065501F147130705022246E3D11B
:104B9000D7DC6115B317A6008145F9B3EF00903457
:104BA00013075501F145930705022246B246E3D5A6
:104BB000E5D461153314AA00814499BB85469D8EC6
:104BC000B1E71309E941B3972401B3D4D4003319F1
:104BD0002401B337F000B3649900DD8C93F77400BF
:104BE000B356D40081CF93F7F40011466388C70011
:104BF00093874400B3B49700A696BE84939786002B
:104C000063D8070485470144814459B113068003E2
:104C1000E341D6CC7D46E356D6FA0556B307F640B7
:104C2000930500023356F4006387B6001309E94385
:104C3000B3172401DD8CB3349000D18C93F674004B
:104C4000014499CA93F7F40011468146E392C7FAEA
:104C5000139496003180F6068D80D58C81470DB96E
:104C60009307F07F0144814425B142896DBD370728
:104C700010007D1701113373B70093D84601758F6B
:104C8000935ED60122CC26CA0E0393D445019357D6
:104C9000D5010E0706CE4AC84EC693F8F87F130E0C
:104CA000F07F33E7EE0093F4F47F13D4F50133E3A0
:104CB0006700131F3500FD82931E36006380C819FC
:104CC00093C61600B38514416305D4126351B0181E
:104CD000638B081AB70780005D8F6380C459930700
:104CE000800363C3B734FD4763C4B748930700022A
:104CF0008D8FB3D9BE003318F700B39EFE00336822
:104D000038013357B700B339D00133683801330362
:104D1000E340B3090F41B3373F013306F340931724
:104D2000860063D30724370980007D193379260173
:104D3000630F092C4A85EF00F01A130785FF9307CC
:104D40000002998FB3D7F9003316E900D18FB399D8
:104D5000E9006344972A058F13061700FD4663C4D4
:104D6000C63A13070002118FB3D6C9003398E90081
:104D70003397E700558F33380001B369070133D605
:104D8000C700814493F7790081CF93F6F9009147EA
:104D90006388F6009386490033B836014296B68997
:104DA0009317860063D6071C138714009307F07FC0
:104DB00005886306F720B70780FFFD17F18F13986A
:104DC000D70193D93900A60733683801B183137727
:104DD000F77F9396C7005207B1827E04D98EC18EA9
:104DE000F2406244D2444249B2494285B6850561E7
:104DF00082806356B00A638A0812B70780005D8F0D
:104E00006386C42D9307800363C7B718FD4763D13A
:104E1000B73C138805FE93070002B3590701638A64
:104E2000F50093070004B385B7403317B700B3EE1E
:104E3000EE003338D0013368380195A2B367D7014B
:104E40009385148099E393C61600630AD404D1E1D4
:104E50009387140093F7E77F6398071EB367E30116
:104E60003368D701639204166381073C63150842D7
:104E7000131835009316D3011358380033E8060190
:104E80009357330019A2B367D7016384071A938736
:104E9000F5FF638A073A638BC523BE8589B563989E
:104EA000051C9386140093F7E67FC1EFB367E30117
:104EB000639F0434638C0744B367D7016393074649
:104EC0000E051318D3010D813368A80093573300E2
:104ED0006DA8B385984063960420B367E301638CA3
:104EE00007309387F5FF638807401305F07F6382DF
:104EF000A520BE859307800363C1B72AFD4763C71A
:104F0000B73C930700028D8F3318F3003356BF0070
:104F1000B317FF003368C800B339F0003353B30050
:104F20003368380133076740ADACB367D70163829C
:104F300007109387F5FF638E071E638FC52DBE850F
:104F4000D1B59307F07F638BF606FA9E33B6EE0178
:104F5000B307E300B2971398F70193DE1E00B3691D
:104F6000D80113D61700B68493F77900E39F07E0C2
:104F70009317D60113D839003368F800A6859357E4
:104F800036001307F07F6380E506B207B18313F79D
:104F9000F57F05883DBD3367D7013338E000B3099D
:104FA000E801B3B7E9013386670093178600E3DDB4
:104FB00007FA85049307F07F639BF41805881307AD
:104FC000F07F8147014831B5639007106300083CCA
:104FD000131836009317D701135838003368F800B8
:104FE000368493573700B367F800E9DB01441307B1
:104FF000F07FB70708000148E9BB370680FF7D1640
:105000007D8E93F77900998CE39107D895B74E85FB
:10501000D12D13078501FD47E3D3E7D2130685FFA2
:10502000B397C900814935B33368D70133380001DC
:10503000CDB1131835009317D301135838003368D6
:10504000F8009357330035BFB309DF413309E3401C
:1050500033363F013309C9409317890063CA0720DB
:1050600033E82901E31608CC8147014439BFB385F1
:10507000984063810414B70680009307F07F336380
:10508000D3006381F8209307800363CCB722FD47E8
:1050900063C9B72C930700028D8F3318F300B35602
:1050A000BF00B317FF003368D800B339F0003353A3
:1050B000B300336838011A97B309D801B3B7D901DF
:1050C0003386E700C684D5B5E31208F2131835001D
:1050D0009317D301135838003368F80093573300FF
:1050E00019B7370580009307F07F3363A300E3937C
:1050F000F8E00E061318D7010D823368C8009357E5
:1051000037003684CDB505179306000233D7E70084
:10511000630AD600930600043386C6403396C70060
:10512000B3E9C90033383001B369E800014681446E
:1051300025BDB309DF01B307E30033BFE9013386BF
:10514000E701931786008544E3D007E28944B70757
:1051500080FFFD17F18F13D7190013F8190033687A
:1051600007019399F701B3E9090113D6170019B99B
:10517000138805FE93070002B3590701638AF500FF
:1051800093070004B385B7403317B700B3EEEE00C2
:105190003338D00133683801ADBE3363E3013338AF
:1051A0006000B3890E41B3B73E013306F740C684B1
:1051B0003684B5B6B367E301638707189387F5FFB5
:1051C000638C071C9306F07F638ED50ABE8565BD90
:1051D000930700028D8FB3D9BE003318F700B39E3A
:1051E000FE00336838013357B700B339D001336854
:1051F00038013A936DB3131836009317D70113583B
:10520000380033E807013684935737009DBBBDCB88
:105210003367D701E31C07DC0E051318D3010D819A
:105220003368A800935733007DBBE30F08E21318DF
:1052300036009317D701135838003368F8003684C6
:105240009357370099B3B309DF41B307E340333FC6
:105250003F013386E7418544D9B4131835009316CE
:10526000D3011358380033E8060193573300A5BB28
:10527000B389EE413306674033B93E013309264115
:1052800036847DB40E061318D7010D823368C8002A
:105290009357370089BBB309DF41B307E340333687
:1052A0003F013386C7409317860063D7070AB38947
:1052B000EE41B3076740B3BE3E013386D741368423
:1052C000D1B43363E30133386000FDB3138805FEC6
:1052D00093070002B3590301638AF50093070004A2
:1052E000B385B7403313B300336F6F003338E00139
:1052F000336838017DB5B389EE41B3076740B3BE6B
:105300003E013386D7413684854411BC13183600DC
:105310009317D701135838003368F80093573700B4
:10532000ADB1B309DF01B307E30033BFE901338651
:10533000E70193178600E3D907C2B70780FFFD177F
:105340007D8E854415B10E061318D7010D82336882
:10535000C8009357370035B133E8C900E30608D0D9
:1053600021B1138805FE93070002B3590301638A34
:10537000F50093070004B385B7403313B300336FD0
:105380006F003338E001336838013DB3014413073F
:10539000F07FB707080035BCB309DF01B307E300AE
:1053A000B3BED9013386D70169BB93D74501B70690
:1053B00010001387F6FF93F7F77F1306E03F2A8864
:1053C0006D8F0145FD816354F60099C18280828012
:1053D0001306E0417D55E34BF6FE130530431D8D6A
:1053E0007D46558F634AA6009387D7BE3317F700D3
:1053F0003355A800598D828013053041B307F5401D
:105400003355F7008280411106C622C426C205CD5D
:105410009357F541B3C4A7009D8C2A842685D924CF
:105420009306E041898EA9477D8093F6F67F63CD90
:10543000A7022D47098FB3D7E4005505B207B394EF
:10544000A400B18329A00144814681478144B20769
:10545000D206B1837E04D58FC18FB2402244268507
:10546000BE859244410182805515B397A400B207CE
:10547000B1838144E9BF3707100093D745019306F4
:10548000F7FF93F7F77F1308E03FED8E13D6F50192
:105490006353F8029305D04363D2F5028545918D9D
:1054A0003305B04013D6F541B7050080B337A000EF
:1054B000918D9D8D82800145814582801308204316
:1054C000B3E5E6006354F8021387D7BA9387D7BCD5
:1054D00063450704B315E500014565D23305A040D7
:1054E000B337A000B305B0409D8D82809306304352
:1054F0009D8E7D47634CD7001387D7BE3397E50059
:105500003355D500598DB3D5D500C1BF13053041F2
:105510001D8D33D5A5008145C9B7FD46135715002C
:105520009D8E3357D700B395F500D98D3315F5000F
:105530006DB7011106CE22CC26CA4AC84EC6B36743
:10554000B50095CFAE84AA8913D9F50163CD0504C2
:105550002684A5C4268579229306E043898E930785
:10556000304363C9D7089397C4002D464E8793F6FE
:10557000F67FB1836359A600130655FFB1A8014910
:10558000814681470147B207F2406244D206B183A7
:105590007E09D58FB3E72701D2444249B2493A8503
:1055A000BE85056182803305A040B336A000B304F8
:1055B000B040958CAA892684D1FC4E8525222A8666
:1055C0009306E04313050502898E9307A00293F624
:1055D000F67F63C7A70C55061307B002098FB39770
:1055E000C40033D7E9005D8F9317C700B1833397A9
:1055F000C90051BF9307604363DBD7022147098F7E
:10560000930507FE63C2050CB3D5B400014713062A
:10561000850193078503634C06083396C9008149C9
:10562000B3E9C90033363001B3E9C5003A84A14774
:105630004E8663C9A704B70780FFFD1793757600F0
:105640003377F40085C59375F60011486380050330
:105650009305460033B6C500329713168700635191
:1056600006089306F0437D8F898E2E8613553600EB
:10567000931797001316D7013367A600B18393F6EB
:10568000F67F11B793078002930585FF898FB3D703
:10569000F9003317B40033E4E7003396B90061BF73
:1056A0005516B397C900B207B1830147E9BD7D46DE
:1056B00013D819001D8E3358C8003396F400336692
:1056C000C800B399F900A9BF7D46198E93971400BD
:1056D000B3D5E900B397C700DD8D33D7E40005BF2C
:1056E0002E8669B7C167637CF5029307F00F130735
:1056F000000263EBA700975700009387A790AA9733
:1057000088233305A7408280218197570000938723
:10571000678FAA97882361473305A7408280B70720
:105720000001636DF5006181975700009387878DB5
:10573000AA97882321473305A74082804181975744
:1057400000009387278CAA97882341473305A740F9
:1057500082802946814591A4B3C7A5008D8B33076C
:10576000C50081E78D4763EDC700AA87637EE50822
:10577000942185078505A38FD7FEE3EBE7FE8280A2
:1057800093763500AA8789CA942185078505A38F5A
:10579000D7FE93F63700C5BF9376C7FF138606FE84
:1057A00063F0C70683A3050083A2450083AF85008D
:1057B00003AFC50083AE050103AE450103A3850118
:1057C00083A8C5019385450223A0770003A8C5FFE0
:1057D00023A2570023A4F70123A6E70123A8D7019A
:1057E00023AAC70123AC670023AE170193874702A2
:1057F00023AE07FF75B790419107910523AEC7FE11
:10580000E3EBD7FEE3E6E7F68280AA8709CA8505BF
:1058100003C7F5FF85077D16A38FE7FE65FB3E9660
:105820006393C70082808507A38F07FED5BF182129
:105830009C2101E791C301458280814739A01C3139
:1058400013071500EDDB81473A853387F5001823F0
:1058500065D7B306F5009422E393E6FE85072A8711
:10586000E5B779714AD04ECE06D622D426D2AA897F
:105870002E899304190003C4F4FF3A8536C632C456
:105880002EC23AC0452222951C3102479245A18B77
:105890002246B246D1E39307D0026311F4089C205C
:1058A000054393042900E5C641476390E6021307C8
:1058B0000003639CE7009C201307800593F7F70D16
:1058C0006392E70C9C30C1468904B70800806314DA
:1058D000030093C8F8FF33FFD80201480145A54FE4
:1058E000E54EFD5233DED802138707FD63E3EF0474
:1058F000BA8763DED704630D58007D58636AAE0033
:105900006314AE006346FF0005483385A6023E954A
:10591000850483C7F4FFC9BF2689A1BF9307B002DE
:105920006305F400A2870143BDBF9C2093042900B6
:10593000DDBF1387F7FB63E5EE00938797FC55BF48
:105940001387F7F963E5EE00938797FA5DB7FD5784
:10595000631FF8009307200223A0F900468519EE83
:10596000B250225492540259F24945618280630434
:1059700003003305A0406DD6630408009385F4FF4F
:105980000CC2F9BF93070003A9F2A1463DBF13075C
:105990000003E382E7F2A9460DBF938741819C4350
:1059A000B286985309E717A7FF1F1307676D2E8666
:1059B000AA853E856FF0FFEA1971A2DC86DEA6DAC1
:1059C0003284635B06009307B0081CC17D55F65016
:1059D0006654D654096182803686930680202EC490
:1059E0002ECCF482814519C09305F4FFFD572EC8D3
:1059F0002ECEBA862C00FC83AA848922FD576355DB
:105A0000F5009307B0089CC079D0A2472380070017
:105A10007DBF938741813687B2862E86AA858843CB
:105A20006FF09FF90325C50E828091ED41116C0046
:105A3000014501CA795591C61C229CC10822333503
:105A4000A00041018280014509CA795599C61C22EE
:105A50009CC108223335A0008280828001114AC88F
:105A600003A9850022CC52C45AC006CE26CA4EC60F
:105A700056C22E84328B368A63E92609DE2513F757
:105A8000074851C304408C495848AA8AB389B44096
:105A90008D44B384E4020947B3C4E40213871600BB
:105AA0004E9763F3E400BA8493F70740B5CFA68519
:105AB0005685EF00A07B2A891DE1B14723A0FA009B
:105AC0005E247D5593E707045EA4F2406244D2440D
:105AD0004249B249224A924A024B056182800C48EF
